:020000040800F2
:1000000000000220E90100088D01000891010008AC
:1000100095010008990100089D01000800000000FA
:10002000000000000000000000000000390200088D
:10003000A10100080000000039020008A501000825
:1000400039020008390200083902000839020008A4
:100050003902000839020008390200083902000894
:100060003902000839020008390200083902000884
:100070003902000839020008390200083902000874
:100080003902000839020008390200083902000864
:100090003902000839020008390200083902000854
:1000A0003902000839020008390200083902000844
:1000B0003902000839020008390200083902000834
:1000C0003902000839020008390200083902000824
:1000D0003902000839020008390200083902000814
:1000E0003902000839020008390200083902000804
:1000F00039020008390200083902000839020008F4
:1001000039020008390200083902000839020008E3
:1001100039020008390200083902000839020008D3
:1001200039020008390200083902000839020008C3
:1001300039020008390200083902000839020008B3
:1001400039020008390200083902000839020008A3
:100150003902000839020008390200083902000893
:100160003902000839020008390200083902000883
:1001700039020008390200083902000800000000B6
:040180003902000838
:10018400704700BFFEE700BF704700BFFEE700BF37
:10019400FEE700BFFEE700BFFEE700BF704700BFF9
:1001A400704700BF0C4B1A6842F001021A6000212C
:1001B40099601A6822F0847222F480321A60074A25
:1001C4005A601A6822F480221A60D9604FF00062E3
:1001D400034B9A60704700BF00380240103000247F
:1001E40000ED00E0DFF834D0002103E00C4B5B5855
:1001F400435004310B480C4B42189A42F6D30B4A35
:1002040002E0002342F8043B094B9A42F9D3FFF77A
:10021400C9FF00F011F8FFF7B5FF70470000022096
:1002240088020008000000200000002000000020D8
:1002340000000020FEE700000E4B70B51E460E4C79
:100244000025E41AA410A54204D056F82530984796
:100254000135F8E7FFF794FF084B094C1E46E41AF2
:10026400A4100025A54204D056F82530984701353E
:10027400F8E770BD880200088802000888020008B8
:0402840088020008E4
:04000005080001E905
:00000001FF
